:1000000000000320D1010000D1320000893200003D
:1000100089320000893200008932000089320000F4
:10002000893200008932000089320000D13200009C
:10003000D132000089320000494400004D450000E3
:10004000D1320000D1320000D1320000D1320000A4
:10005000D1320000D1320000D1320000D132000094
:10006000D1320000D1320000D1320000D132000084
:10007000D1320000D1320000D1320000D132000074
:10008000D1320000D1320000D1320000D132000064
:10009000D1320000D1320000D1320000D132000054
:1000A000D1320000D1320000D1320000D132000044
:1000B000D1320000D1320000D1320000754600007C
:1000C000D1320000A1470000D1320000CD4800002D
:1000D000D1320000C5490000D1320000D132000009
:1000E000D1320000D1320000D1320000D132000004
:1000F000D1320000D1320000D1320000D1320000F4
:10010000D1320000D1320000D1320000D1320000E3
:10011000D13200008D380000D1320000D132000011
:10012000D1320000D1320000D1320000D1320000C3
:10013000D1320000D1320000D1320000D1320000B3
:10014000D1320000D1320000BD4A0000D13200009F
:10015000D1320000D1320000D1320000D132000093
:10016000D1320000D1320000D1320000D132000083
:10017000D1320000D1320000D1320000D132000073
:10018000D1320000D1320000D1320000D132000063
:10019000D1320000D1320000B54B0000D132000056
:1001A000D1320000D1320000D1320000D132000043
:1001B000D1320000D1320000D1320000D132000033
:1001C000D1320000D1320000D1320000D132000023
:1001D0005C4B4CF2205210B51A804DF628121A8052
:1001E00000BF00BF03F078F8574B4FF030621A6041
:1001F000564A9A60564ADA60564B4FF470021A60BB
:10020000554B564A1A60564B1A78110703D51A787F
:1002100042F008021A70534B5349AA221A70534AEB
:10022000534B8B4204D252F8040F43F8040BF8E707
:10023000504B514900228B4202D243F8042BFAE77B
:100240004E494F4A002352F8230041F8230001335E
:10025000742BF8D14B4B4C4A802103F8011B93427D
:10026000FBD14A4B454A1A60494B8A221A70A3F5C2
:10027000805324225A70A0221A709A799207FCD5D2
:100280009A79D406FCD4434A937903F00C03082BE3
:10029000FAD1414B60221A7002331A78802AFCD1BD
:1002A0003C4B01221A715D225A719A799006FCD555
:1002B0009979384A4906FBD5384B394919600021EC
:1002C000596020231370937903F00C030C2BFAD19F
:1002D000344B354A1A60354A354C136813F4807331
:1002E00003D123604FF4A8531360324B324A1A6093
:1002F00000225A60072243F8042C304AC3F80C2D20
:1003000062B603F06DF92368DA0705D52C4803F0CF
:10031000C5F82C4B2C4A1A602C4B1B785B0609D570
:10032000284C294B22689A4204D1254803F0B6F89C
:100330000023236004F0F8FC02F0D4FF02F09CFFDD
:10034000FEE700BF0E20054030800440823F0400DD
:100350000100002B88ED00E0002008E0030000858C
:1003600002D0074000E007403416FF1F2C5A00005F
:10037000400CFF1F0020FF1F5039FF1F0002FF1F0E
:100380000000000000E400E064E400E008ED00E0AC
:10039000005006400040064001E007404480044011
:1003A0000000060204800440C010070010D0034083
:1003B00014D0034014E000E01FBF02000000202022
:1003C000A202705D1CE00340A5C3945A00F00740F0
:1003D000FFFFFFFFFFFFFFFFFFFFFFFFFFFFFFFF2D
:1003E000FFFFFFFFFFFFFFFFFFFFFFFFFFFFFFFF1D
:1003F000FFFFFFFFFFFFFFFFFFFFFFFFFFFFFFFF0D
:10040000FFFFFFFFFFFFFFFFFFFFFFFFDEF9FFFF23
:1004100010B5054C237833B9044B13B10448AFF33E
:1004200000800123237010BD0020FF1F000000008A
:10043000305A0000084B10B51BB108490848AFF30B
:1004400000800848036803B910BD074B002BFBD0A0
:10045000BDE81040184700BF000000000420FF1F47
:10046000305A00003416FF1F00000000704700BF24
:10047000704700BF704700BF2B4B012208391A702C
:100480004E292DD8DFE801F0322C2C2C2C2C2C2CD2
:100490002C2C2C2C2C2C32322C2C32372C2C2C3774
:1004A0002C2C373C3C3737373741324132463246C5
:1004B0004B284B2D282D32282C282D2D2C2C2C2C44
:1004C0002C2C2C2C2C2C2C2C2C2C2C412C2C32324B
:1004D000462C4B322C323200144AD3691933D36183
:1004E0007047124A53691933536170470F4AD368F2
:1004F0001933D36070470D4A13681933136070477E
:100500000A4A5368193353607047084A936919338C
:1005100093617047054A1369193313617047034AA1
:100520009368193393607047C02EFF1FA02EFF1FE2
:10053000592A034B8CBF012200221A70704700BF5A
:10054000A027FF1F10B5022182B0002002F0CCFFCF
:1005500001210D2002F0C8FF144B15491B680193BF
:10056000144A154B01980860002401210D201C60DD
:100570005C609C60DC601C615C619C61DC6114708F
:1005800002F09EFF40F2DC5002F0D8FF21460D2021
:1005900002F096FF00F0DCF9084B0949094AC3F85C
:1005A0006811C3F8702102B010BD00BF8835FF1F6D
:1005B000A427FF1FC02EFF1FA02EFF1FC027FF1F55
:1005C0007904000031050000474B2DE9F0431F6816
:1005D0005A68A7B3874232DC9E68DD681C69596996
:1005E000D3F818C0D3F81C80DFF800E14FF0010900
:1005F0008EF80090C0EB020E3F1A361A2D1A241AFC
:10060000091AC0EB0C0CC0EB080027EAE7772EEACA
:10061000EE7E26EAE67625EAE57524EAE47421EA28
:10062000E1712CEAEC7220EAE07083E880409E6081
:10063000DD601C6159619A61D861BDE8F083DFF823
:10064000A8E072B190420CDBDEF80860DEF80C50D6
:10065000DEF81040DEF81410DEF818C0DEF81C805A
:10066000C2E79E68DFF880E076B9DD68DFF878E001
:100670006DB1A8420BDBDEF81040DEF81410DEF896
:1006800018C0DEF81C80AFE7B042EEDBDEE71C6985
:10069000DFF854E044B1A04206DBDEF81410DEF8C7
:1006A00018C0DEF81C809FE75969DFF83CE031B1E3
:1006B000884204DBDEF818C0DEF81C8094E7D3F82B
:1006C00018C0DFF824E0BCF1000F01D0604507DA64
:1006D000D3F81C80B8F1000F8CD040458ADB83E74B
:1006E000DEF81C8080E700BFA02EFF1FC02EFF1F7A
:1006F0002DE9F043694E6A4F6A4CDFF8BC8183B044
:1007000001F0D2F80021684802F0C0FA3368009383
:1007100000983B68C01AFFF757FF00231846237064
:1007200002F0D4FE614B21781B78614A0B431178AB
:1007300001280CBF184643F001008142207051D0BF
:100740000123107088F8003003F068FD2378002B37
:1007500040F08B80574D6B68002B40F09A802B68DF
:10076000002B40F09280AB68524A002B67D1D368CF
:10077000002B64D12B694F4A002B5CD15369002BAD
:1007800059D1AB694B4A002B51D1D369002B4ED1C3
:100790002A68484B12B99A68002A54D00A2003F0FC
:1007A00027FDEB68DFF80C91002B62D1D9F81430EB
:1007B000002B4FD1EB6913B10B2003F019FD03F0AF
:1007C00037FD2A68002388F800303A4B9AB101219E
:1007D0000D2002F075FE33680193019B3B6003B06E
:1007E000BDE8F08398F80030002BADD1314D314B8E
:1007F0002A68002AEBD15A68002AE8D19A68002AB0
:10080000E5D1DA68002AE2D11A69002ADFD15A69F3
:10081000002ADCD19A69002AD9D1DB69002BD6D114
:1008200021780029D3D10D2002F04AFED3E7012020
:1008300003F0DEFCACE7002003F0DAFCA1E70320C4
:1008400003F0D6FC96E71A69002AA7D19B69002B12
:10085000A7D0A3E7042003F0C5FCEA68154B002AE3
:10086000AAD15B69002BA7D1A4E7092003F0C0FC43
:1008700070E7002003F0B6FCD9F81430002BE9D162
:10088000D9F80C30002B97D194E7022003F0B0FC8C
:1008900069E7042003F0ACFC61E700BF8835FF1F67
:1008A000A427FF1FC12EFF1FC027FF1FA027FF1F68
:1008B000A127FF1FA02EFF1FC02EFF1FF8B51A4B48
:1008C0001A4EC3F8243300251846C3F840335D6040
:1008D0009D601E6001F0CCFB154B164C5D60184608
:1008E0009D60C3F82433C3F840331E6004F5A3674A
:1008F00001F0BEFB04F5AB6650230F48206004F501
:100900009B6E04F5B3614022A3856560A560204617
:10091000C4F814E0A761E6616162628502F034F90F
:10092000064B2360F8BD00BFE023FF1F3C570000CB
:100930002020FF1FC027FF1F805700002057000006
:1009400008B5836ADB6B03B19847012008BD00BF7F
:10095000F8B5524B524A5349534D544F544E4FF4ED
:100960008070186013684024234313600A200C60D1
:1009700002F0E4FD2A684F4C4F48504B5049DFF8D5
:1009800080E142F040522A60227842F00202227056
:10099000027842F0800202701A6842F002021A6085
:1009A0001A6822F001021A603B6843F400033B60BE
:1009B0000B6805F5142504F5783400F5743043F020
:1009C0000E0305F63805343400F59A700B604FF0CD
:1009D00040424FF0840C4FF44047012143F2410361
:1009E000C6F800C02A60276072460160CEF8003069
:1009F0001368002BFCDA334B00221A600A2002F045
:100A00009DFD314A136843F00203136013689B078E
:100A1000FCD401F0E7FE2D4B012103F1800243F8E5
:100A2000041F93424FF00104F9D14FF4807200216A
:100A30002748284D284E294F04F05EFCDFF8C4C03B
:100A4000DFF8C4E02648274A1F4900238CF800300D
:100A5000CEF800400324046023482B60234C106030
:100A600023483B6033600C600368224943F48053A1
:100A700003605D203368136802F008FD1E4A1F4BB7
:100A80004FF0005111602B602B6843F012032B6074
:100A90002B6843F440232B60F8BD00BF18D00440FE
:100AA00014F10F4004F10F4000D8004008700440DA
:100AB00004300A40004006400050064004800440D4
:100AC0003080044000200A4040110A40FC2FFF1FE4
:100AD0008C30FF1F48110A4058110A404C110A403F
:100AE000A8110A4054110A400030FF1F158B08005E
:100AF00084110A403910000008E100E004000003FE
:100B0000A0200A408830FF1F90100A40F8B5C36843
:100B10000BB1632900D8F8BD06460D4602F0EAFC89
:100B2000294BB0601A68002A40D02848016821F09B
:100B30007F418D4215D35469691A002C42D0226935
:100B4000914204D227E01A698A421C4624D863697C
:100B5000891A002BF7D100233161B461736166619A
:100B6000D9E772B61A4A1B4F00244FF0007E04608A
:100B7000C2F800E01A68B461491B05F1FF3E4FF06E
:100B80004044356172611E6011619661C7F800E0F2
:100B9000046062B6F8BD23469869521A1A617361FF
:100BA000B06131619E61B3695E61F8BD094F07486C
:100BB0003561691E4FF040447261B2611E60396058
:100BC0000460F8BD1446C6E78030FF1F8C100A4051
:100BD00044110A4088100A4002699368F0B50C4637
:100BE0005906074603D4126893685B06FBD5402379
:100BF000D4F808E0A3602368136063685360E36877
:100C0000D3602369136163695361A169916104F140
:100C1000340393E80300E36AE669256BD36202F1CB
:100C20003403D6619762156383E803001368E16BB0
:100C3000D163012B134603D01B6819680129FBD12E
:100C400001211C60216013689C4229D013460020BA
:100C500000E00B46196858620D681962AC420E46F6
:100C60001846F6D100217362316297F8343013F0E0
:100C7000FD0F09D00C490B6873B153621A620E6004
:100C80000120C2F808E0F0BD08490B68002BF4D140
:100C9000074853620260F2E7064853620260EEE7DB
:100CA00016460023DEE700BF8430FF1FC82EFF1F5B
:100CB000CC2EFF1FC42EFF1F2DE9F047CC88B4F5C2
:100CC000804F02D90020BDE8F0879946904607463C
:100CD0008A4601F0CFFD05460028F3D001F0CAFD99
:100CE0000446002876D0BAF80630002B43D13F4A9C
:100CF00028602AF47F6626F00F06012306F580504F
:100D0000DFF8ECE039686B60C5F808E0C5F80CA0C6
:100D100006F5005E286106F5405006F58046C5F8E8
:100D200014E04FF0000CA8614FF4805EEE614FF4C8
:100D300000506360A162A2604FF440514FF48042C2
:100D4000C4F80CC0C4F82C80C4F810E06061A16144
:100D5000E261BAF806202263DAF800206263DAF86A
:100D60000420A263386823602946C4F83C90BDE89B
:100D7000F047FFF731BF01F07DFD78B3BAF80630D8
:100D80009AF900601B04F24343F00043F60FD20FC0
:100D900028F47F6143F0800321F00F0143EA06232A
:100DA00012020126466001F5805E836001F500565F
:100DB00001F5405342F0802201F58041C0F80C80DB
:100DC00042F08002C0F810E046618361C161286092
:100DD00004608EE7284601F055FD73E7284601F0D0
:100DE00051FD204601F04EFD6CE700BF8081008080
:100DF000800208002DE9F04780460F4616469946C6
:100E000001F038FDB0B1741EA40B054615D0824622
:100E100004E0013CCAF8000082460ED001F02AFD31
:100E20000028F6D100E0254628462C6801F02AFD6E
:100E30005545F8D10020BDE8F08700230124B6F520
:100E4000804FC0F82880C7620663C0F83C900460F9
:100E5000436383632A4624D91A4998F835C05460FD
:100E60004FF4804E002027F47F6323F00F0341EA04
:100E70000C21916003F5805903F5005C03F54051A6
:100E800003F58043D760C2F81090C2F814C0916196
:100E9000D36188B9CEEB0606B6F5804F7744126869
:100EA000DAD8310441F4004198F835C0546001208B
:100EB00041F08001B646D6E729464046BDE8F047F6
:100EC000FFF78ABE800000402DE9F047584ED6F863
:100ED00000A0BAF1000F00F0A080DFF858810025D3
:100EE000DAF808301F0668D4DAF808301C045FD43A
:100EF000DAF82430DAF82070002B77D01F62DAF8A5
:100F00000820002F5FD050067B6260D55046DAF88B
:100F1000289001F0B7FC002108460C46D6F800C026
:100F2000D8F800E0BA4601E01746A2B1BB6A3A6AB7
:100F30009945F9D17B6A002B5FD01A62002A59D0FB
:100F40005362002C54D027623D62574508BF924639
:100F50001746002AEAD1002863D1002964D1D9F8C4
:100F6000103033F01F0308D09A68520637D5C9F8FD
:100F70001030C9F80C50C9F818500CB913E03C46B1
:100F8000A268130409D5D9F83C3042F0400220464B
:100F90001BB1A36AA260DB6B9847276A204601F069
:100FA00071FC002FEBD1BAF1000F99D1BDE8F087A9
:100FB0005046FFF7C5FC00289AD1DAF820A0BAF114
:100FC000000F8DD1F2E75106C8F8003018D4504612
:100FD000BA4601F057FCBAF1000F81D1E6E79A68F2
:100FE0001A681B6833F01F03BED1C6E7376086E777
:100FF0003C46A9E79E460120A3E7944601219DE7D0
:10100000DAF82890504601F03DFCD9F8103033F062
:101010001F0304D0BA463C46A6E7BDE8F087BDE80A
:10102000F087C8F800E098E7C6F800C097E700BF6F
:10103000CC2EFF1FC82EFF1F6E4B2DE9F0411E68FE
:101040001E6071031BD56C4F3C68C4B1DFF8DC81B6
:10105000A3681A0600F18580A3681B047BD4636A29
:10106000256A002B00F082801D62002D00F0828036
:101070006B6220462C4601F005FC002CE8D13703BA
:1010800018D55E4F3C68ACB1DFF8A481A3681D069B
:101090005DD4A368180455D4636A256A002B6CD00C
:1010A0001D62002D6CD06B6220462C4601F0EAFBDD
:1010B000002CEBD1B10766D472070CD5504B1C68DD
:1010C00044F02A021A60A30729D4270703D44D4B02
:1010D0001A78022A65D0F00117D4B1011DD54A4A09
:1010E0001168D1B14B6913604BB11A69474D48483B
:1010F000013A00264FF040449E612A600460C868AF
:101100000368BDE8F0419B6818473E4B1A78012AF6
:1011100068D0032A59D0B101E1D4BDE8F08114F0C0
:10112000010533D0374B1A78012ACED839483A4ACC
:101130003A4C01254FF040411D7026F08076046046
:101140001160CAE72046FFF7FBFB0028A4D1246A00
:10115000002C9BD1AEE72046FFF7F2FB00287FF47E
:101160007EAF246A002C7FF473AF88E73D60002DCA
:101170007FF47EAFC8F800307BE73D60002D92D150
:10118000C8F8003090E7FFF79FFE95E71D4A244B13
:10119000244F157002221A60386800F033FE3D605B
:1011A00093E7650799D503241A4D1B481C70144911
:1011B0004FF0404442F210772F60046009688C05BC
:1011C00001D519490A60F20187D504210C4A19702A
:1011D00010680022C0F38160114600F08BFB114BB8
:1011E00018607AE7064A02211970136843F4807385
:1011F000136072E744110A40CC2EFF1FC42EFF1F5C
:1012000084110A408830FF1F8030FF1F88100A4079
:101210008C100A4080100A4084100A40A086010009
:1012200038200A408C31FF1F34200A40C82EFF1F8F
:101230008430FF1F2DE9F04F85B00290002A00F0A6
:101240009A80006B974B007D03FB01F302284FEA65
:10125000134300F0B38005214FF0010B04E0013986
:101260004FEA4B0B00F0A1804BEA5B008242F6D8BC
:101270001FFA8BF203920299BDF80C0091F8352009
:10128000A1F84000002A40F0948084334FEA531CB8
:10129000022600234FF0FF3EDFF80CA2019399468F
:1012A000F046019F0AEBC700002401788278C578D8
:1012B0000379614432449142354433446BD9A942A5
:1012C00065D98B4238BF0B46734500F1010002D24D
:1012D0009E46B846A1460134042CE6D15F441F2F38
:1012E000E0D9019B01339B450193DAD1BEF1BB0FDD
:1012F00057D8029ABDF80C00A2F844005FFA8CFCA3
:10130000F6B21FFA88F1B8F11F0F82F84AC082F8CE
:101310004B60A2F84890A2F846101CD809EBC8030D
:10132000981C1AF8032062440AF803201AF80020D7
:1013300032440AF80020D81C04331AF80020324442
:101340000AF800201AF80320D8443244B8F11F0FDD
:101350000AF80320E2D9029C01201C2300FA09F2BA
:1013600003FA09F9A4F8421084F8362084F837907B
:1013700005B0BDE8F08F029B1A6B4A4B127D03FB50
:1013800001F3022A4FEA13436ED0012263E7AB4216
:1013900038BF2B4698E7AA42F9D9934238BF134683
:1013A00092E7002005B0BDE8F08F2022039293461B
:1013B00061E766335E094FF0020C6AE70F2A63D9D2
:1013C00020224FF480700299DFF8DCA0A1F84020C1
:1013D00057334FF0FF375C093E4600252B4600216E
:1013E0001AF8032022449142034438BF1146FF2BD0
:1013F000F6D98F4288BF2E4605F1010588BF0F46FA
:101400008542EBD1BB2FCCD8029AE4B2FF2E134613
:1014100082F84A40A2F84400A2F8466098BF3346DA
:1014200007D81AF8032022440AF803200344FF2BAC
:10143000F7D9012823D0022819D0042895BF06F037
:10144000030206F00702112301239340029A82F857
:1014500036300299F60800230120A1F8426081F895
:10146000373005B0BDE8F08F01200246ABE706F04B
:10147000010255239340029A82F83630E9E7029A36
:10148000FF2382F83630E4E7013A012101FA02F045
:10149000B0F5807F94DCC20808BF0A4693D092B2B0
:1014A00091E700BFAB2A01008C30FF1FF0B5B0F808
:1014B0004240B0F840101F2C2BD81F4E40F00207BE
:1014C00056F82420D5074FEA840E27D402F00605EB
:1014D000022D22F01F0308D11CE0984216D01A6892
:1014E000D20708D41B6823F01F03B3F840209142B1
:1014F000F3D998420AD01A6832F01F0204D114E0DE
:10150000126832F01F0210D09042F9D10C441F2C07
:10151000D6D9F0BDB3F84050A942DED90C441F2CF7
:10152000026046F80E70CBD9F3E70C441A680260EB
:101530001F2C1F60C4D9ECE70030FF1F2DE9F047D6
:1015400006460D4617469A4601F084F904460028DF
:1015500000F0908001F08EF98046002800F08C8029
:10156000602200214FF04009204603F0C5FE4A46A4
:101570000021404603F0C0FE0123032DC8F80030CF
:10158000C8F80890C4F810802663636184F835A019
:1015900084F8345047D03FB172680AB961E01A4606
:1015A000936B002BFBD194636DBB96F814E0BEF1F6
:1015B000010F8CBF00230123D8064FF48041737DB7
:1015C00094F8362043F0704343EA0723089F43EA28
:1015D00007430343194341EA0E316160F07DB37D57
:1015E00094F8371042F0804242EAC05242EA034384
:1015F00043EA0123A36035F0020309D0032D2046FE
:1016000033D0BDE8F0870021084696F814E0D6E70D
:10161000214A1368ABB11A68226044F002021A60D2
:101620002046BDE8F087099A08992046FFF702FE98
:10163000814638B3002FAFD196F814E039463846CA
:10164000BDE76368154944F0020043F4004363605A
:10165000206014600B6843F0200320460B60BDE857
:10166000F0877460002DA0D0CDE7FFF71FFF204664
:10167000BDE8F087BDE8F087204601F0F3F840466A
:10168000BDE8F087404601F0FDF8204601F0EAF899
:101690004846BDE8F08700BF58110A4040110A4093
:1016A000F8B590F8343013F0FD0F044600F0818057
:1016B000744800F1800550F8041FCA070CD421F0CB
:1016C0001F018C4203D16FE0944268D011460B6831
:1016D00023F01F02DB07F7D5A842ECD1236B1B7D5B
:1016E000022B00F0A880B4F84610B4F84460B4F8B7
:1016F000487094F84AE094F84B501F291BD8624A6E
:1017000007EBC10303F1020CD05CCEEB0000D05418
:1017100012F80C00401B02F80C0003F1030C043318
:1017200012F80C00401B02F80C00D05C3144401B46
:101730001F29D054E4D9554E306800B3544F01E00E
:101740002846E5B1836A056A9C42F9D1436A002BB9
:1017500000F084801D62002D7ED06B62236933F01F
:101760001F0205D08342EBD01B6833F01F02F9D172
:101770008342E5D001F086F82846002DE2D12069A9
:1017800030F01F0306D0056801F07CF835F01F0328
:101790002846F8D12046BDE8F84001F063B8236838
:1017A0000B60A84287D199E723680360A84282D1E1
:1017B00094E7026822F01F02904201D154E01A46D9
:1017C000136823F01F039C42F9D163681D0403D5FD
:1017D000536843F40043536023682E481360036842
:1017E0002D4943F0400303600B682B4A9806FBD554
:1017F00020231360294E30680028C0D0284F02E013
:101800002846002DBBD0836A056A9C42F8D1436A02
:1018100043B31D6225B36B62236933F01F0205D009
:101820008342EDD01B6833F01F02F9D19842E7D014
:1018300001F028F8E4E7B4F84630B4F8440094F82E
:101840004A50FF2B3FF677AF0F4AD15C491BD1546A
:101850000344FF2BF9D96EE73B607FE735607AE7F9
:101860003B60D9E73560D5E70A490B4A0B6823F09E
:1018700020030B60136813F40043FBD1094A136083
:10188000B8E700BFFC2FFF1F8C30FF1FC42EFF1FC7
:101890008430FF1F40110A4044110A40CC2EFF1F24
:1018A000C82EFF1F58110A4038B5084B1D6865B196
:1018B000EC6834B123682046DB6898476468002CE4
:1018C000F8D1AD68002DF3D138BD38BDB833FF1F56
:1018D00007490A680023836043600AB905E01A4695
:1018E0005368002BFBD1506070470860704700BF01
:1018F000A433FF1F2DE9F04182B080460F46164603
:1019000000F098FF0446002838D02422002103F07C
:10191000F3FC00250820E67584F81480A77565752A
:101920002B46009001952A4629462046FFF706FEE1
:101930000646206040B300F0ADFF164E2268DFF887
:1019400068E0154F206101212B46D76382F83510DE
:101950008EF80010114A124F37604FF400253146BF
:1019600020467560FFF7A8F90E4B1A680AB908E01F
:101970001A469368002BFBD19460204602B0BDE864
:10198000F0811C602046F9E7204600F05BFF3046FE
:10199000F4E700BFB033FF1F251B0000A031FF1F7D
:1019A00080060001B833FF1F9231FF1FF0B40D69AC
:1019B0008DB3D46A88B32B5C0133DBB25CB362783D
:1019C000032A28D12B54277803EB570131291A46D3
:1019D00025DC022F2AD9302B98BF022202D925E01C
:1019E000312B21D0E91802320133A678CE70D2B261
:1019F000D9B297420B4604F10204F1D80A460130ED
:101A00002A44C0B200230228D37004D8431C2954AE
:101A1000D8B20328FAD1F0BC70470346CEE7C3F131
:101A200032077F00FFB2D4E71A46E8E71946E6E737
:101A30002DE9F04FDFF8E890364DD9F8004085B039
:101A40008046002614B913E064688CB1A268002AAD
:101A5000FAD129882068304B09390091076841463E
:101A60002046B847002844D126466468002CEDD1B2
:101A70002A4C2F8827440934A74203D81AE034445B
:101A8000A74217D963782678042BF8D1092EF6D10E
:101A9000D9F80050002DF2D04FF0000AC4EB070B2C
:101AA0000396AB684BB16D68002DFAD1039E3444A8
:101AB000A742E7D805B0BDE8F08F2B68CDF800B09D
:101AC0001B6801221E46414623462846B04770B196
:101AD0006B68BAF1000F16D0CAF80430D8F80C3091
:101AE0006B60AA46C8F80C50C5F80880DBE7AA4628
:101AF000D9E7636856B173600023C4F80880636057
:101B0000C8F80C40D6E7C9F80030E7E7C9F800305C
:101B1000F2E700BF9031FF1FA931FF1FA031FF1F67
:101B2000A433FF1F0146C06B10B103685B68184700
:101B30002DE9F0418B6A1D6B2B7E0A460E2B3FD898
:101B4000DFE813F00F004A0062007F008F002001E1
:101B5000A9003701C800390104019900E800090112
:101B600040002E689D4B7268DF799D4B9D4C186834
:101B7000217822F0FF6323F4E02343EA07437360F4
:101B80000131802928BF012150B1437D9942F7D00E
:101B9000034602E05A7D8A42F2D09B68002BF9D1BD
:101BA000914E21700027090441F4A0643B46314660
:101BB0003A46284686E89000FFF77EF801232B7608
:101BC000BDE8F0812846FFF733FF884A0F23002144
:101BD0002B761170BDE8F081834C286863886B75A3
:101BE0004168834E266021F07F010B4343607B4AAE
:101BF00000234FF49016214628466660FFF75CF8F4
:101C000002232B76BDE8F081744B1A796A765A79F3
:101C1000AA769A79EA76597A1A7A42EA0122EA830E
:101C2000D97A9A7A42EA01222A849A7BD87B197C53
:101C30001A7002435870997051EA020319D00323B5
:101C40002B76694C6B4B23606B4A00234FF0FE767A
:101C5000214628466660FFF72FF804232B76BDE85F
:101C6000F0815E4B1A79032A03D95A79032A00F0CE
:101C7000A8800B232B765C4C604B2360574A0023D3
:101C80004FF41026214628466660FFF715F80C230E
:101C90002B76BDE8F08129460020FFF787FE4F4BE9
:101CA0005A78E2B107222A765C784F4E6F8C524AFE
:101CB000240444F04074002344F4D06447F0FE77D9
:101CC0003146284686E89000FEF7F6FF08232B767B
:101CD000BDE8F08129460120FFF768FE3F4B9A7866
:101CE000002AC6D009222A769C783F4E6F8C424A41
:101CF000240444F04074002344F4D06447F0FE7799
:101D00003146284686E89000FEF7D6FF0A232B7658
:101D1000BDE8F081314AD178937843EA0123B3F5E5
:101D2000007F4AD9364B4FF400721A804FF0007191
:101D30002D4C324E61600023284A266021462846F9
:101D4000FEF7BAFF0D232B76BDE8F081294602206D
:101D5000FFF72CFE8DE7214B234EDA792A771A7A8A
:101D60006A775C79002724043B4644F410643146CA
:101D70003A46284686E89000FEF79EFF0E232B7613
:101D8000BDE8F081154B1C78174E6F8C1A4A24045D
:101D900044F04074002344F4D06447F0FE773146A9
:101DA000284686E89000FEF787FF06232B76BDE8DD
:101DB000F0810A4B78E7094B96E7114A1904138022
:101DC000B6E7D9799A7942EA01226A841A78002A18
:101DD0003FF466AF05222A76D5E700BFA031FF1F8A
:101DE000B833FF1FA033FF1FB033FF1F9231FF1F17
:101DF0008006000180060003A431FF1F8006000258
:101E00009031FF1F002834D0F8B5C46806466CB185
:101E10001B4D0027236820461B69984763682A6882
:101E2000A76062602C601C46002BF3D1706828B15B
:101E3000846BFFF735FC2046002CF9D13068FFF7A2
:101E40002FFC104A1368CBB19E4203D112E0A64288
:101E500004D023469C68002CF9D1F8BDA2689A6092
:101E6000206908B100F024FD2046BDE8F84000F0EC
:101E7000E9BC7047B36813603446F1E7F8BD00BFB2
:101E8000A433FF1FB833FF1F70B590F89633044694
:101E900063B100F55676002556F8040F013518B1E8
:101EA000FFF7B0FF94F89633AB42F5D80023C4F89F
:101EB0009C3384F8963384F8993384F89A33C4F8C1
:101EC0009F33C4F85C33C4F86033C4F86433C4F897
:101ED0006833C4F86C33C4F87033C4F8743384F8CE
:101EE000A33384F8A43384F8A53384F8A63384F8A4
:101EF000A73384F8A83384F8A93384F8AA3384F884
:101F0000AB33C4F85833C4F8783370BDF8B5069EC7
:101F10006AB9544C544DC0F83453C0F818438C6916
:101F200024F07F4424F0FF04B4F5106F01D00020AA
:101F3000F8BDCC7E022CFAD80F2E80F89023F6D96B
:101F4000103304E0103E0F2E03F110034CD913F8A8
:101F5000104C092CF6D113F80F4C042CF2D113F8C5
:101F60000C4C012CEED113F80B4C092CEAD113F8D0
:101F7000094C022CE6D813F8075C072DE2D113F8C0
:101F8000065C052DDED113F8055C05F0F005802D0B
:101F9000D8D113F8045C032DD4D113F8035C012DC0
:101FA000D0D113F8025C002DCCD113F80D5C002ABF
:101FB0004AD113F80E4C80F8914313F80D4C80F879
:101FC000924313F8094C80F8934313F8054C04F03E
:101FD0000F0480F8944313F8014C80F895430132C4
:101FE000D2B280F89023ADE7002AA0D003460022A9
:101FF0001E4EC0F89C234FF4801583F89623C3F837
:102000005823C3F8782383F8992383F89A23C3F8D5
:102010009F23C3F85C23C3F86023C3F86423C3F889
:102020006823C3F86C23C3F87023C3F874230846ED
:1020300003F56072C3F85063C3F8545303F5547149
:10204000FEF73AFE0120F8BD13F80EEC90F89173FC
:10205000BE45CBD190F89373A742C0D280F892537B
:10206000AFE700BF6857000050570000A0060029E6
:1020700010B5072104460C3000F022FC04F59070E6
:10208000022100F035FC04F5F070042100F048FC5A
:1020900004F53870012100F05DFC2046BDE81040D9
:1020A000FFF716BC79B190F8963399420BD890F8A7
:1020B00099234AB190F8A323012303FA01F11143B4
:1020C00080F8A3137047704770B504460126C4F822
:1020D00054130A4BC0F850330D46034600F55471B3
:1020E00080F899638068FEF7E7FD94F8A33306FA59
:1020F00005F123EA010184F8A31370BD230308004E
:1021000090F896338B420BD390F899334BB190F8FB
:10211000A423012303FA01F1114380F8A4137047AB
:102120007047002970B518BFA322044608BFA0223B
:1021300041F480230126C0F85023C0F854330D46E3
:10214000034600F5547180F8996300F55F7280686A
:10215000FEF7B2FD94F8A43306FA05F123EA010173
:1021600084F8A41370BD00BF2DE9F04105460E466A
:1021700001F0C0F905F546739E4223D005F54D7375
:102180009E4201D0BDE8F08195F89A43002CF9D029
:10219000661E2E4496F89C33082BF3D1AB6895F855
:1021A0009B03002785F89A73597D2246FFF7A2FB0F
:1021B00005EB8405134AC5F858030923177086F800
:1021C0009C33DFE795F8AB73002FDBD095F89623AF
:1021D00082B10124A04602E00134A2420AD308FAE7
:1021E00004F33B42F8D021462846FFF789FF95F8D3
:1021F0009623F1E7304644F62061BDE8F041FEF752
:1022000085BC00BFBC33FF1F79B190F8963399426B
:102210000BD890F899234AB190F8A523012303FA2B
:1022200001F1114380F8A5137047704770B504465B
:102230000126C4F854130A4BC0F850330D46034628
:1022400000F5547180F899638068FEF735FD94F8C5
:10225000A53306FA05F123EA010184F8A51370BD40
:102260002301100079B190F8963399420BD890F879
:1022700099234AB190F8A623012303FA01F11143EF
:1022800080F8A6137047704770B504460126C4F85D
:1022900054130A4BC0F850330D46034600F55471F1
:1022A00080F899638068FEF707FD94F8A63306FA74
:1022B00005F123EA010184F8A61370BD2301110082
:1022C00079B190F8963399420BD890F899234AB196
:1022D00090F8A723012303FA01F1114380F8A71313
:1022E0007047704770B504460126C4F854130A4B72
:1022F000C0F850330D46034600F5547180F89963D9
:102300008068FEF7D9FC94F8A73306FA05F123EAB2
:10231000010184F8A71370BD2301120079B190F870
:10232000963399420BD890F899234AB190F8A82394
:10233000012303FA01F1114380F8A8137047704795
:1023400070B504460126C4F854130A4BC0F8503344
:102350000D46034600F5547180F899638068FEF7D6
:10236000ABFC94F8A83306FA05F123EA010184F8DE
:10237000A81370BD2301130079B190F896339942E8
:102380000BD890F899234AB190F8A923012303FAB6
:1023900001F1114380F8A9137047704770B50446E6
:1023A0000126C4F854130A4BC0F850330D460346B7
:1023B00000F5547180F899638068FEF77DFC94F80D
:1023C000A93306FA05F123EA010184F8A91370BDC7
:1023D0002301140079B190F8963399420BD890F804
:1023E00099234AB190F8AA23012303FA01F111437A
:1023F00080F8AA137047704770B504460126C4F8E8
:1024000054130A4BC0F850330D46034600F554717F
:1024100080F899638068FEF74FFC94F8AA3306FAB7
:1024200005F123EA010184F8AA1370BD2303040017
:102430002DE9F0414C1E044482B094F89C330F46C1
:102440000646092B27D8DFE803F04B4B05050505A9
:1024500005292B38D5075FD50133DBB2072B84F86C
:102460009C3318D1434A117800297CD1424909781C
:10247000002978D190F8AB0301211170B94020EA0E
:10248000010186F8AB133046394684F89C33FFF7D8
:10249000A1FF86F89A7302B0BDE8F081900747D497
:1024A00012F00105F7D139463046FFF7ADFE314A4B
:1024B0000123157084F89C33EDE712F00105EAD191
:1024C00000EB8708D8F85803FFF79CFCC8F858536E
:1024D00039463046FFF798FE012384F89C33DAE74B
:1024E000D307D8D5022384F89C3390F8AB333BB99B
:1024F00044F6206100F54670FEF708FB96F8AB3312
:102500000122BA4013433946304686F8AB3302B055
:10251000BDE8F041FFF778BE90F8AB33012202FA34
:1025200007F723EA070780F8AB7384F89C23B2E728
:10253000394630460192FFF71FFF019A08239105A3
:1025400084F89C3313D412F4806F14BF0223002349
:1025500006F54D7046F2A81186F89B3302B0BDE82F
:10256000F041FEF7D3BA062384F89C3393E70123A6
:10257000EEE700BFBC33FF1F9231FF1F10B590F88C
:10258000922390F89113C0F8541340F6013343EAB4
:102590000243C0F850330446034600F5547100224C
:1025A0008068FEF789FB012384F8993310BD00BFD2
:1025B00070B5002380F899334B6B714A0D8F9342AD
:1025C00082B0044663D06F4A93423DD0A32B27D0FC
:1025D00094F8A31300297FD194F8A513002940F0A3
:1025E000928094F8A613002940F0978094F8A713DE
:1025F000002940F09C8094F8A813002979D194F820
:10260000A933002B40F0A78094F8A433002B40F0AE
:10261000AC8094F8AA13002940F0938002B070BDFA
:102620000B6B042BD4D1002DD2D090F896339D4261
:10263000CED8CB6A29461A68FFF7FAFE94F8993388
:10264000002BC5D002B070BD90F8902390F8823373
:1026500090F8835390F8851380F89633012A80F818
:10266000975380F8981341D9FFF788FF94F8963371
:10267000002BE3D0012529462046FFF713FD94F8EF
:1026800096330135AB42F6D294F89933D8E790F8F7
:1026900096339D429CD1D0F85833002B98D194F8B2
:1026A000953390F8942380680193012633460321E3
:1026B0000096FEF743FF344BC4F858030546C36346
:1026C0003246234604F55E716D68FEF793FB94F87D
:1026D0009933002BB6D17BE791FAA1F1B1FA81F1E0
:1026E000204602B0BDE87040FFF7DCBC002BC1D132
:1026F0006EE791FAA1F1B1FA81F1204602B0BDE88E
:102700007040FFF70BBE91FAA1F1B1FA81F12046BA
:1027100002B0BDE87040FFF777BD91FAA1F1B1FAC0
:1027200081F1204602B0BDE87040FFF79BBD91FAF1
:10273000A1F1B1FA81F1204602B0BDE87040FFF787
:10274000BFBD91FAA1F1B1FA81F1204602B0BDE816
:102750007040FFF73FBE93FAA3F1B1FA81F1204632
:1027600002B0BDE87040FFF707BE93FAA3F1B1FADB
:1027700081F1204602B0BDE87040FFF7C1BC00BF48
:1027800023030800A0060029D527000070B50546E0
:102790000024012604E095F896330134A3420ED3B9
:1027A000D5F8783306FA04F21A42F4D021462846C6
:1027B000FFF7A6FC95F896330134A342F0D22B46DE
:1027C00005F55E71D5F858030122BDE87040FEF7AB
:1027D00011BB00BFC36B1BB101461846FFF7D6BF44
:1027E000704700BF0D4B0E481946F0B403F140028C
:1027F0000C4E41F8802F1A4637680B4C0B4D1F606A
:1028000042F8C01F1B640A4B2768016832602F60C2
:10281000256019600360F0BC704700BF8034FF1F63
:102820008435FF1F8035FF1FE433FF1FC033FF1FB8
:102830000034FF1F024B186808B102681A60704725
:10284000E433FF1F024B1A6802601860704700BF34
:10285000E433FF1F024B186808B102681A60704722
:102860008435FF1F024B1A6802601860704700BF72
:102870008435FF1F024B186808B102681A60704760
:102880008035FF1F024B1A6802601860704700BF56
:102890008035FF1F054B186830B102681A600023AD
:1028A000037043708370C370704700BF6034FF1FB4
:1028B000024B1A6802601860704700BF6034FF1F47
:1028C00001EBC10100EB810188420DD210B4074C2D
:1028D000226800E01846034643F8242B994202463A
:1028E000F8D820605DF8044B704700BFE433FF1F49
:1028F00001EB410100EB411188420DD210B4074CAD
:10290000226800E01846034643F8602B99420246CD
:10291000F8D820605DF8044B704700BF8435FF1F76
:1029200000EB8111884212D230B4094D02462C6866
:1029300000E01A46134643F8404B99421446F8D833
:10294000C343194421F03F010844286030BC70475C
:102950008035FF1F352303FB010188420DD210B4DF
:10296000064C226800E01846034643F8352B99428E
:102970000246F8D820605DF8044B70476034FF1FB2
:10298000C36B4BB1C26A99698A4206D0D9698A423F
:1029900004BF002283F833207047002283F83220DE
:1029A000704700BF0023C36003617047012A01D054
:1029B000002070471A78092AFAD15A78042AF7D1E8
:1029C000F0B55A79012A83B00D4604463BD0023A4D
:1029D000102A6AD9089A03F109079A180021974228
:1029E00080F8341080F835105FD28E46587A03286C
:1029F0005BD939188A4258D39B7A042B35D00B2BDC
:102A000013D132E0052B52D0252B4ED18A427AD9F0
:102A10000878032849D90E18964246D84B78042BDB
:102A200071D00B2B0F466ED03146242BEAD1BB78E8
:102A3000581E032804D9F12B37D1FB78022B34D14F
:102A40004FF0010EE2E79979089A03F109079A1805
:102A5000A1F1030E0020BEFA8EFEBA424FEA5E1EBE
:102A600084F8340084F83500C0D8BEF1000F1CD0C3
:102A700000220023E3601AB1638C618D99426CD20D
:102A800000232361E2680023E385238684F839303C
:102A900084F83A3084F83B3084F83C30A4F8603154
:102AA000002A3DD0012003B0F0BD0020FBE706283E
:102AB000FBD9FB78023B012BF7D8BB7813F0F00071
:102AC00012D08028F1D194F8340000289ED103F070
:102AD0000F0384F83430FB7884F8363078793B790A
:102AE00043EA0023238491E794F8350000288DD130
:102AF00084F83530FB7884F8373078793B7943EACD
:102B00000023638482E7BEF1000FCED094F8342016
:102B10001AB1238C618D994207D294F83520A8E729
:102B20002069C01A18BF0120BDE794F83610009341
:102B30000023019328460123FEF700FDE06048B121
:102B40000F4AC2632346228C6169FEF753F90123C1
:102B500084F8283094F835208DE7002694F8371053
:102B60000093284601963346FEF7E8FC20610028D2
:102B700088D0044BC36384F8326084F8336081E703
:102B80007D2C00008129000010B50321044600F5CA
:102B9000E070FFF7ADFE04F538700721FFF7C0FEC7
:102BA00004F594600121FFF7D5FE0023C4F86431D9
:102BB000C4F86831C4F86C31C4F87031C4F87431A9
:102BC000C4F87831C4F87C31C4F88031C4F8843159
:102BD000C4F88831C4F88C31C4F89031C4F8943109
:102BE000C4F89831C4F89C31C4F8A031C4F8A431B9
:102BF000C4F8A831C4F8AC31C4F8B031E3852386F9
:102C0000E36023612046BDE81040FEF761BE00BFCF
:102C1000F8B58B680A6B078EC18DC3F30E43D31AC8
:102C20009B0810D0426902EB830352F8044B44B175
:102C3000858D0131A9422ABF00218E000E46456ACA
:102C4000AC519A42F1D18F4298BF838D078698BFCD
:102C5000FF18013F028CC185791AB1EB920F03D2A4
:102C6000002380F82830F8BD034604464169C06857
:102C7000FEF7C0F8012384F82830F8BDC36B1BB100
:102C800001461846FFF7C4BF704700BF2DE9F8435F
:102C9000C28D038E9A4230D0878D0133BB422FD232
:102CA0009D001FFA83FE04460E46406A94F82810E1
:102CB0004559A4F830E069B9E16859B1934296BF2B
:102CC00007F1FF37D243BA1A1344228CB3EB920FA9
:102CD00080F0CA8005F00F074FEA1528A7F1080217
:102CE00008F00F01C5F30313062A01F1010984F866
:102CF000383022D84EB1B14507D00020BDE8F88366
:102D00004FF0000E75467346CDE7082FC5F3033329
:102D10003DD0092F00F000810A2F40F015810A2BC9
:102D2000EBD1D4F86C31A02284F83A205FFA89F90B
:102D3000C3BB2F0EC5F307462CE1BB1E012B5FFA68
:102D400088F66BD9052F65D0042F33D07B1F022B5B
:102D500040F293800F2FD0D1F72E5FD8F02EB4F829
:102D6000601101D00029C8D0D4F88031002B00F0C8
:102D70004582B1F5917F80F034824B1C9BB2214497
:102D8000A4F8603181F83D800020BDE8F883082B6D
:102D9000B3D1D4F86431802284F83A205FFA89F9FB
:102DA000002BC6D0C5F307462F0E48463A4631469B
:102DB0009847EFE0D4F88081B8F1000F00F0CC81A3
:102DC000B4F86011B1F5917F80F0ED804B1C621872
:102DD00099B2B1F5917FA4F86011C5F3074782F865
:102DE0003D6000F0A9814B1C621899B2B1F5917F4A
:102DF000A4F860114FEA156582F83D7000F09581E6
:102E00004B1C9BB22144A4F8603181F83D50002056
:102E1000BDE8F883F02E30D9F72E2ED0F13E0E2EDD
:102E20003FF66BAF01A353F826F000BF6B300000F4
:102E30004F3000003D300000FB2C0000FB2C000058
:102E400033300000FB2C0000AD300000FB2C0000F4
:102E50009330000003300000E72F0000FB2C00003F
:102E6000793000001B30000072B62346228C616965
:102E7000E068FDF7BFFF62B62CE7D4F88031B4F804
:102E80006011002B00F01F81B1F5917F80F0468129
:102E90004B1C9BB22144052FA4F8603181F83D8082
:102EA00000F03281D4F88061002E00F0DD81B4F8AA
:102EB0006031B3F5917F80F07281591C89B223444F
:102EC0002A0C072FA4F8601183F83D2040F04081C0
:102ED000002E00F0CC81B1F5917F00F06D814B1C8C
:102EE0009BB2DFB2180A21442D0E81F83D501946DD
:102EF0000022F02384F83B7084F83C00A4F86021A1
:102F000084F83A30002E00F0F58004F13D000122F3
:102F1000B0470120BDE8F883092B7FF4EEAE2F0EF9
:102F200000F02E81D4F86831902284F83A205FFABC
:102F300089F9002B00F05C81C5F30746FFB23A46E1
:102F400031464846984725E00B2F0DD10B2B7FF4D7
:102F5000D4AED4F87031B02284F83A205FFA89F9FF
:102F6000002B7FF41FAFE4E60C2F40F051810C2BB7
:102F70007FF4C3AED4F87431C02284F83A205FFAEB
:102F800089F9002B3FF4D5AEC5F3074648463146D4
:102F90002F0E984784F8399084F83B6084F83C7091
:102FA0000120BDE8F883002204F13D00C047D4F8B9
:102FB000808184F83D600121A4F86011C5F30747C2
:102FC000B8F1000F7FF40FAF0B46591C89B22344B0
:102FD000B1F5917FA4F860114FEA156583F83D7053
:102FE0003FF48BAE0CE7D4F8A431002B00F0EF8057
:102FF0009847C5F3074684F83A805FFA89F92F0E9F
:10300000C8E7D4F8A031002BF2D1D4F8B0316BB1BD
:10301000FB209847C5F30746EDE7D4F8AC31002B09
:10302000E6D1D4F8B0310BB1FF209847C5F307467D
:10303000E1E7D4F89431002BDAD1F7E7D4F89031F6
:10304000C5F30746002BD6D030469847D3E7D4F8CF
:103050008C21002AEAD02E0C6B0C06F07F0003F4C2
:103060007E531843F6B29047C5E7D4F88831C5F3CC
:103070000746002BE8D1BEE7D4F8A831002BB7D122
:10308000D4F8B031002BD1D0FE209847C5F30746C5
:10309000B1E7D4F89C31002BAAD1D4F8B031002B81
:1030A000C4D0FA209847C5F30746A4E7D4F898316E
:1030B000002B9DD1D4F8B031002BB7D0F820984721
:1030C000C5F3074697E7B1F5917FFFF4E1AE052F11
:1030D0001AD0B1F5917FC0F09680072F37D10B122F
:1030E0000020F02284F83B1084F83C30A4F8600102
:1030F00084F83A20D4F88431002B5AD004F13D00F2
:1031000098470120BDE8F883F72E7FF4F6ADB4F8B8
:103110006011D4F88061CFB2080AE9E6002204F118
:103120003D00984700210123B4E6002204F13D0050
:10313000C0470021012365E6002204F13D00C0479D
:10314000012184F83D702D0EA4F8601158E6002688
:10315000CFB2C1F30720CBE6B4F86021B2F5917F7E
:10316000BFF4CBAD531C9BB22244B3F5917FA4F8BE
:103170006031C5F3074782F83D603FF4BEAD24E7F8
:10318000D4F86431802284F83A205FFA89F9C5F3D3
:1031900007468BB3314648463A469847FAE6194601
:1031A000002204F13D00B047D4F8806100230121E2
:1031B00085E60120BDE8F88304F13D000022B04718
:1031C0000127002001463B46D4F880618BE6D4F805
:1031D000B031002B3FF42AAFFC209847C5F30746D7
:1031E00009E7002204F13D00984700210123C6E5CC
:1031F000FFB2C5F30746CDE61F46CBE6B1F5917F9A
:10320000BFF47BADB9E54A1C0B46002691B256E6E9
:103210000D2F0DD10D2B7FF470ADD4F87831D02265
:1032200084F83A205FFA89F9002B7FF4ADAE80E58F
:103230000E2B7FF462ADD4F87C21E02384F83A3081
:103240007AB12E0C690C06F07F0301F47E5119430C
:103250005FFA89F9A1F5005148469047F6B22F0E62
:1032600098E65FFA89F964E5B4F8601131E7B1F5E1
:10327000917F3FF434AF32E608B5FDF763F9FDF70F
:1032800037FA01F015F8FAE708B5104C08E02368A2
:1032900059050DD423681A050FD42368DB0411D413
:1032A00023685803F3D500F0F1FA23685905F1D5E6
:1032B00001F0E0F923681A05EFD501F071FA2368EF
:1032C000DB04EDD501F002FBEAE700BF34800440E7
:1032D00008B5FFF7D9FF00BF014B10221A807047D5
:1032E00000200540704700BF094908B50B6830B1A0
:1032F0006A461844A2F50052904202D2086018466D
:1033000008BD01F00BFD0C2303604FF0FF3008BD3A
:10331000400CFF1F084A1378802B01D00020704713
:103320000649074B07480860002119701378802B65
:10333000FCD00120704700BF03E0074044800440F8
:1033400001E0074000002822094A1378012B01D030
:103350000020704703F1804303F5FC2360211970BE
:103360001378802BFCD1034B034A1A60012070476D
:1033700003E007404480044000000602F0B44D1E04
:103380002E46002400E00134B0FBF2F302FB1300F0
:10339000092800F130078ABF3730F8B2C0B206F80A
:1033A000010F1846002BEED10A1953704CB110785A
:1033B00015F8016F28700133E01A834202F80169A1
:1033C000F5DB0846F0BC704710B4114B53F83020C1
:1033D00092F8804234B1012379B182F880305DF8EF
:1033E000044B704703EBC0035B681A6851B922F0C5
:1033F00002021A605DF8044B704782F800315DF8F4
:10340000044B704742F003021A605DF8044B7047AA
:10341000945700001C4A02EBC00301295B6811D0DD
:1034200004291BD052F83000002280F8802229B1F4
:10343000022920D0032922D01A6070474FF48072ED
:103440001A60704752F830004FF4A27280F8801270
:103450001A601A6822F020021A60704752F8301081
:103460004FF4A272012081F880021A601A6842F0BB
:1034700020021A60704740F203121A6070474FF43E
:1034800081721A60704700BF945700001030024BE1
:1034900043F82010704700BF0002FF1F30B4054BF7
:1034A000054D064C002210211A602A602060196028
:1034B00030BC704714D0034004D0034000D0034018
:1034C0003F2801D8FFF780BF704700BF3F2806D8CC
:1034D000044B53F8303093F80002C0B2704700201C
:1034E000704700BF945700003F2801D8FFF792BFF4
:1034F000704700BF72B60D490D4B0E4A1B68086835
:10350000126862B6520102D5322B88BF0130C3F572
:103510002F33094903F21F334FF47A729B08A1FB42
:10352000031302FB00F000EB930070478835FF1F88
:1035300018E000E004ED00E0176CC1162DE9F84337
:10354000054672B6224F234B234A1B683C6812681B
:1035500062B6520102D5322B88BF0134B5B3C3F530
:103560002F3303F21F331D4EDFF86890DFF86880B9
:103570009B084FF47A72A6FB031302FB04F404EBDE
:10358000930472B6D9F800103A68D8F800E062B631
:10359000C1F52F3303F21F339B08A6FB03031EF074
:1035A000806FC4EB93034FF47A7002D0322988BF46
:1035B000013200FB0233B3F57A7F04D3013D05D01D
:1035C00004F57A74DDE700F073FEDAE7BDE8F8830E
:1035D0008835FF1F18E000E004ED00E0176CC1160D
:1035E000F8B54E4B4E48DFF85CC14E4C4E49DFF803
:1035F00058E14E4E4E4D4F4F4FF000621A604FF063
:1036000080521A604FF000521A604FF080421A60E8
:103610004FF000421A600022026028234EF6FF702D
:10362000CCF80000CEF8003023600EF5012E0B60C0
:1036300033602B6006F500263B6005F50025A3628C
:1036400007F500278B6204F5012401F5012106F638
:10365000E87605F6E87507F57F6710310EF1100E74
:10366000203433602B60CEF800303B600B60236069
:10367000314CBB618B6109212160A7F5002704F55E
:103680008054203F08343A602060BB60E36047F814
:10369000041C04F5FD2407F5FE27043704F2FC742E
:1036A00022603860A360FB6044F8041C083404F610
:1036B000FC74C7F8FC2F2060A4F5E124A4F2DC74AC
:1036C00033602B60C7F8F81F21681C4841F4007173
:1036D000216001681A4C0EF57F4E0EF1E80E07F5D9
:1036E000883706F5803605F5803541F000710160B8
:1036F000CEF8002047F6FF710822396033602B6056
:10370000226000F037FF1920FFF718FF00F0BAFC25
:1037100040F21310BDE8F840FFF710BF04E100E0ED
:1037200004800340148003401C8003402480034035
:103730002C80034034800340008003400480044018
:1037400000900C40088003400C80034001380128A1
:1037500001D90020704772B6064B53F8203033B1C0
:1037600000205B680130002BFBD162B67047184621
:10377000FBE700BFC835FF1F30B472B61C4A137890
:10378000190704D51B4B196A81B1996AE9B15378BD
:103790001B0704D5174B1A6C3AB39A6C1AB362B66E
:1037A000154B00221A7030BC00F0F6BC0422124CFB
:1037B000124D217843F8325003EBC20308304A1E01
:1037C0005860227062B630BC704705210A4C0C4D1F
:1037D000227843F8315003EBC1030830013A5860B6
:1037E000227062B6EFE70921F0E70822DFE700BFA9
:1037F000945900000000FF1FE135FF1F88004000C2
:10380000C8004000431E012B00D970471B4A4001ED
:1038100040F0100030B4104472B6194CE25C032A38
:103820001BD8DFE802F00217151203220D88E254BC
:1038300010F0080F14BFC823882343EA054308315A
:103840000360416062B630BC704708300422EDE787
:103850000522EBE708300222E8E70A4A52F8230083
:1038600038B1094A52F82300416042F8231062B689
:10387000E9E742F82310044AF7E700BF0000FF1F02
:10388000F035FF1FC835FF1FD035FF1F2DE9F04F62
:10389000DFF800A3DFF8049385B043E0AC4D9E0849
:1038A00005EBC607013C7A6803F00803E4B2A2F115
:1038B000080003F0FF0E002B40F0ED8055F8363085
:1038C0001B0C99B222F8081C002B00F0DB80A14BE6
:1038D00022F806EC42F804EC53F82420002A00F009
:1038E000A281DFF8BC8258F824305860DFF8B4B207
:1038F00048F824003BF8142011442BF8141000F071
:103900002BFC002800F08881934A944B17F0080F95
:1039100000F1080018BF1346786045F836300823D8
:103920008AF800309AF80030DBB259070FD58C4A7C
:1039300012784AB18B48017801F0FF0221B1013AB7
:10394000D2B2027002B900BE04228AF8002003F04D
:10395000080202F0FF01002A00F0C28099F800304E
:10396000DBB21C099AD19B08794C54F83320C2F37E
:103970008302013A04EBC3010C2A7FD8DFE802F08E
:103980007B7B7E7E7E7E7E7E447E7E7E07004A68D6
:10399000754F11685268754E754D7A608AB2002075
:1039A000DFF8DCE13960B2F5A06F4FF0010144F8B7
:1039B00033E030602061A0612970654B00F0C48263
:1039C00000F2B280822A00F0AC8240F2B481B2F5FB
:1039D000817F00F04D8240F202339A4240F05082E3
:1039E000BA8802F07F02022A00F24A827B88002B0A
:1039F00040F046825F4801939200104402910278A1
:103A000042F0020202701AE2584E336843B3DFF804
:103A100098C1574D5848BCF8002029780778102ADB
:103A2000964647F0020828BF4FF0100E002981F09B
:103A300001012970CEEB02020CBF8821C82104EBE2
:103A4000C80592B287F0010741EA0E416B60ACF8FD
:103A5000002044F8381073440770002A5FD03360A8
:103A6000414B1A88B2F5A06F08D100219A7859709D
:103A7000424B1A7002E0424A44F83320414A012383
:103A800013704CE7344A354B17F0080F18BF134634
:103A900045F8363043E700F07FFB3B4A3B4952F89C
:103AA0002430002B00F0C480586811F804E042F87C
:103AB000240003F108027A60BEF1030F05D8DFE8A5
:103AC0000EF02B02282502220A551A8817F0080F3B
:103AD0000CBF8823C82343EA024345F836301EE76B
:103AE000D80774D4190600F1B3809A0706D528497F
:103AF00028480A780224D2B20A700470DB0602D584
:103B0000244B10221A7005B0BDE8F08F04220A552C
:103B1000DBE705220A55D8E703220A55D5E7BEF1AF
:103B2000100F18BF00239AE7B2F5086F00F00F825C
:103B300000F29E80A2F5D062012A00F2A181164B0C
:103B40005A68002A00F09C817888B7F804E032E0D7
:103B50000000FF1FAC35FF1FC80040008800400078
:103B6000EC35FF1FB535FF1FD835FF1F8C35FF1F04
:103B7000B435FF1FC0200740E035FF1F98200740E5
:103B8000C800100094200740C835FF1FF035FF1F04
:103B90008820074080200740985900009020074067
:103BA0009035FF1F4839FF1F9835FF1F0C335A68A7
:103BB000002A00F0658119888142F7D15988714542
:103BC000F4D1000A03280CBF11781989BAE0AE4B72
:103BD000AE48AF4A196102270770DFF8D8E21170CA
:103BE000AC4A1A609A60AC4DAC4EAD4CAD4F996189
:103BF0000D228EF80020FF222A70327021703A7058
:103C0000A94CAA4A9F26012105F8046C5C6001704A
:103C1000DA6005B0BDE8F08FA54A45F836001378A4
:103C2000013313707BE643F82400DFF8B0825DE6D1
:103C30000B5D032B00F2908101A252F823F000BF2C
:103C40001F3900001F3900006B3C0000653C00007C
:103C5000924A98480D248021047011709A077FF5CC
:103C60004DAF44E701230B5559E600230B5556E6AB
:103C7000B2F5106F40F004811A6A8F49B878087065
:103C8000120600F1A581A36A7F4A1B0600F19B8101
:103C9000236B7D4A1F0600F1AF81A36B7A4A180699
:103CA00000F1A581236C784A190600F19B81A36C71
:103CB000754A1B0600F19181236D734A1F0600F1BE
:103CC000A581A36D704A180600F19B8100237B4AF1
:103CD000DFF80882DFF808B20395019202961D46CC
:103CE000774B53F82500AE0028B1476800F054FA2E
:103CF0003846002FF9D1734B9859714B00229A51D5
:103D000048F8062028B1476800F046FA3846002FE8
:103D1000F9D16C4A019B002191511B786A4A023B00
:103D200091514FF000022BF81520032B5ED8DFE8ED
:103D300003F09A599A59802A40F0A280634A0221DE
:103D400010705070FB888B4280F065815048077876
:103D500047F0020C04EBCC01102B9E4628BF4FF01D
:103D6000100E4A6002EB0E0BCEEB03010122002382
:103D700002924FEA0E480193C82242EA08089DF8D1
:103D8000043044F83C8087F001022B700270DFF8A9
:103D9000F8C0DFF8FC80002940F0A680BEF1100FCB
:103DA0001CD142F0020204EBC204019BC4F804B02F
:103DB000DFF8D4E00C04002B40F0AE8044F088041F
:103DC0009DF808302B70102907700BEB01034EF89B
:103DD000324003D100213E4A336011802B4A012337
:103DE00013704BE6019B4FF001021A70019B0135E5
:103DF0000133022D01937FF473AFDFF8E8802C4F7D
:103E000098F80030029E039D00223A70314A19074B
:103E1000137000F1C780304A98F801301370002207
:103E20002263A2631A07DFF8608000F1A8802B7874
:103E30000293002283F0010301932265A265002111
:103E40008B4688468E460A461148077847F0020C92
:103E500004EBCC030393029B002B039B5A600CBF23
:103E60008822C82289E7019B4FF000021A70BDE743
:103E7000BA8802F07F02022A02D87B88002B72D017
:103E80000C4A0F231370A9E70000FF1F942007407E
:103E9000E035FF1F88001000882007408020074081
:103EA000982007408C2007409C35FF1FB835FF1F26
:103EB000E135FF1FC0200740EC35FF1FF035FF1F25
:103EC000AC35FF1FC835FF1FD035FF1FE435FF1F7E
:103ED0009835FF1FC4200740C82007409035FF1FBA
:103EE0004839FF1F9459000010297FF65AAF42F05D
:103EF00002020CEBC200019BC0F804B07BB1594830
:103F0000594B9DF808401C70103988F800700BF16F
:103F100010034CF832005EE744F0C80450E7534801
:103F2000EEE7BB8803F07F03022BA9D8DFF848E156
:103F30004F4A9B009E44107050709EF800309B07C3
:103F40001BD511700221FDE60190029177E7494BE4
:103F5000474A1B781370F5E617F0080F0CBF0223D1
:103F600003230B55DBE44448019392001044029173
:103F7000027822F00202027061E70221E2E600F01C
:103F8000EBF8002867D008303C4BC8F84400C8F86C
:103F9000403000F0E1F8002858D00830384BE06499
:103FA000A36444E700F0D8F800284AD00830334B27
:103FB0006062236200F0D0F800283DD00830304B1A
:103FC000E062A36227E7D06A083800F0E5F85FE610
:103FD000586A083800F0E0F855E6D06C083800F070
:103FE000DBF869E6506C083800F0D6F85FE6D06B75
:103FF000083800F0D1F855E6506B083800F0CCF8DE
:104000004BE6D06D083800F0C7F85FE6506D083811
:1040100000F0C2F855E610294FF000038E460193D8
:1040200028BF4FF0100E0123CEEB01014FEA0E48DE
:1040300002EB0E0B029307E73B78A06201333B7063
:10404000E9E63B78206201333B70B3E73B78A0643C
:1040500001333B70EBE63B78C8F8400001333B701E
:1040600097E700BFC8001000B435FF1F880010009C
:10407000E435FF1FEC35FF1FC020074088004000DB
:10408000C8004000F8B500F007FE284B284C29482E
:10409000DFF8BCC0DFF8BCE0274E284F284D0022D7
:1040A0001A6021685A6041F48021216001689A6099
:1040B00041F04071DA601A615A619A61DA611A62FC
:1040C0005A629A62DA621A635A639A63DA631A640A
:1040D0005A64016003218CF80010A020C3F307216B
:1040E0008EF8000004F528343170C3F307401549F9
:1040F00038701B0E2B70CC34FF230CF8C43C124DCF
:104100000EF8B83C11480B70012306F8083C2270E9
:1041100070264FF40014102207F82C3C2E70046017
:1041200081F8F820AEF1B80EF8BD00BF0000FF1F07
:104130003480044000D800409C200740B020074055
:10414000B42007401020074035E400E004E100E01F
:10415000442107404021074072B60D480268B2FA78
:1041600082F31D2B10DC4FF00041D94022EA0102FE
:10417000026062B6074803EBC303DB00C2180021EC
:10418000C15010465160704762B60020704700BFB2
:10419000440CFF1FD003FF1F0D4B0E4AC31AA2FB96
:1041A00003231B091D2B0CD80B4A127852B972B687
:1041B0000A484FF00041026821FA03F31A430260F3
:1041C00062B67047064A1278002AF0D0FFF7D4BAD8
:1041D000D003FF1F398EE338E135FF1F440CFF1F6A
:1041E000EC35FF1F014B9870704700BF480CFF1F54
:1041F000072808DD084908384B78012202FA00F048
:10420000184348707047044A0123117803FA00F0FC
:1042100008431070704700BF480CFF1F034B00227B
:10422000082199701A705A70704700BF480CFF1F20
:10423000F8B51C4D2B7893B31B4E48F6A14407E00C
:10424000013C27D033782BBB00F032F82B7833B306
:104250000120FFF77BFA0228F2D8FFF77DFF07461F
:104260000028EDD0114C0FCCB860F9603A617B6149
:1042700003CCB861F961A378228887F822301B2328
:1042800000243A8439463B8001203470FFF7BAFAA3
:104290002046F8BD012333706FF00100F8BD4FF0E8
:1042A000FF30F8BDEC35FF1FF235FF1F480CFF1F34
:1042B00038B5294C237803B138BD0123237000F0B1
:1042C000C9F900283BD100F05BFA002834D100F096
:1042D000EDFA70BB00F066FB40BB00F0DFFB10BBEB
:1042E00000F058FCE0B900232370EFF30583002BA6
:1042F000E2D1EFF3108172B6184B186810B3184C66
:104300002278FAB945691D6001232370F5B1AA61CD
:1043100001B962B600254577836898472570CBE7D9
:1043200000F026F9DFE700F021F9D9E700F01CF9E9
:10433000D3E700F017F9CDE700F012F9C7E700F076
:104340000DF9C0E70029B7D162B638BD054B1D6035
:104350000029DFD1DDE700BFF335FF1F0436FF1F63
:104360000836FF1F0036FF1F10B4EFF3108272B63D
:10437000437F33B9017F012908D0032910D00123DD
:10438000437702B962B65DF8044B7047114C21685F
:10439000A1B1114943610B68836108605861EEE780
:1043A0000E4C216881B10E4943610B68836108603E
:1043B00058610C4B4FF080511960E0E7064B4161AA
:1043C000816120601860DAE7054B416181612060FE
:1043D0001860EEE70436FF1F0036FF1FF435FF1F9D
:1043E000F835FF1F04ED00E010B4047F4160022C9B
:1043F000C26003D05DF8044BFFF7B6BF83685DF879
:10440000044B184770B5EFF3108272B60C4C20685D
:1044100080B10C4E00254369236073B19D6102B9E0
:1044200062B6457783689847EFF3108272B62068CA
:104430000028F0D102B962B670BD3360EFE700BF6B
:10444000F435FF1FF835FF1FFFF7DCBF184A30B403
:104450001468002C27D0036821688B420ED2CB1A37
:1044600000218460C1602360E06010600223037556
:1044700030BC704711688B42144608D3A2685B1A9F
:104480000360002AF6D18260C460A060EEE7D268C3
:10449000C2608460E060C568CB1A0222A860236015
:1044A000027530BC70478460C4601060DEE700BFF6
:1044B000FC35FF1FF8B5224E34682CB32368002B5F
:1044C0003AD1204F1D4604E03468ECB12368002B3C
:1044D00032D1A36803B1DD602069336003682575BC
:1044E0001B68BB4221D1037F4560022BC46020D0F2
:1044F000FFF73AFF6368002BE6D023602046FFF702
:10450000A5FF3468002CE1D1EFF3108372B60E4A98
:1045100000211068116003B962B628B18468FFF702
:1045200095FF20460028F9D1F8BD22460021984782
:10453000E0E783689847DDE7013B2360E4E700BFDD
:10454000FC35FF1FE94300000C36FF1F024A1368C9
:1045500001331360FFF7AEBF8835FF1F704700BF00
:10456000704700BF704700BF704700BF704700BF73
:10457000704700BF30B42948294A2A4B2A4D60248D
:10458000E121047011701B78284C082B30D00A2BC5
:104590002748284937D00C2B0CBF35225D22122327
:1045A0002A60236002600B60234B24491B78244A55
:1045B000BBB101230B601360224B23491B78234AB4
:1045C000012B26D9042B0FD9082B1ED9102B94BFF1
:1045D000862387230B6013601D4B01221A7030BCA9
:1045E00070470B601360E7E784230B601360F3E709
:1045F00000F58E200F490830212213232A60236002
:1046000002600B60D0E73922F7E785230B60136067
:10461000E2E780230B601360DEE700BF0040074045
:1046200001400740630CFF1F08B003400CB003407B
:1046300008B00B400CB00B401136FF1F20B00340F8
:1046400020B00B40640CFF1F24B0034024B00B408B
:104650001036FF1F054A064B10781B78C0B2DBB23C
:10466000984238BF4030C01A704700BF1836FF1F4D
:104670001936FF1FF0B4384B1A7912F0300F2CD0D6
:1046800072B6997D01F0FF0200293DD062B6334F2A
:10469000334938780D78334E1C46C0B2EDB2431C16
:1046A000402BE17928BF0023AB4202F1FF32C9B2AF
:1046B0001CBFF154184612F0FF02F0D12A4B1B68C0
:1046C000C2B23A704BB1A84236BFC5F14005401B9B
:1046D00040192728C4BF01221A701F49CA78D2B2D4
:1046E000150616D452060DD51B4B1B795B0609D552
:1046F0001E4B1F491B6800220A7003B11A70164B2B
:104700003C22DA70F0BC70474022D9795A7462B604
:10471000E3E70B791C06E5D5164B174E1C7833786A
:10472000E4B2DBB29C420ED0144D01E0A3420AD0A9
:104730000133402B28BF00230879E85CC0B2C87160
:10474000087D0728F2D9DBB2034933700B791806CC
:1047500044BF7C23CB70C5E700A006401836FF1F7E
:104760001936FF1F5C36FF1F1436FF1FA036FF1FD0
:104770009C36FF1FA436FF1F9D36FF1F1C36FF1FF0
:10478000054A064B10781B78C0B2DBB2984238BF9E
:104790004030C01A704700BF1837FF1FAD36FF1FEB
:1047A000F0B4384B1A7912F0300F2CD072B6997DD4
:1047B00001F0FF0200293DD062B6334F334938780B
:1047C0000D78334E1C46C0B2EDB2431C402BE1794C
:1047D00028BF0023AB4202F1FF32C9B21CBFF15423
:1047E000184612F0FF02F0D12A4B1B68C2B23A7091
:1047F0004BB1A84236BFC5F14005401B40192728E0
:10480000C4BF01221A701F49CA78D2B2150616D445
:1048100052060DD51B4B1B795B0609D51E4B1F4954
:104820001B6800220A7003B11A70164B3C22DA7022
:10483000F0BC70474022D9795A7462B6E3E70B792D
:104840001C06E5D5164B174E1C783378E4B2DBB264
:104850009C420ED0144D01E0A3420AD00133282B14
:1048600028BF00230879E85CC0B2C871087D07281A
:10487000F2D9DBB2034933700B79180644BF7C23AD
:10488000CB70C5E700B006401837FF1FAD36FF1FDD
:10489000D836FF1FA836FF1F1C37FF1FAC36FF1F7F
:1048A0002037FF1F1937FF1FB036FF1F054A064B81
:1048B00010781B78C0B2DBB2984238BF4030C01AC3
:1048C000704700BF2837FF1F2937FF1F30B42B4B1D
:1048D0001A7994061FD52A48DA79037829490133D1
:1048E0003F2B0978C8BF00238B42D2B203D0264C9D
:1048F000D9B2E2540170254A116861B1244A127894
:10490000D2B2934236BFC2F140029B1A9B18272BAA
:10491000C4BF01230B70194AD378DBB2180611D437
:104920005A060DD5154B1B795B0609D5194B1A494B
:104930001B6800220A7003B11A70104B2C22DA7027
:1049400030BC704711790906EAD5144910480C7833
:104950000178C9B28C420DD04A1C272A84BF00219D
:104960000A460F4D054C98BFD1B2AA5CD2B2E27193
:104970000170D5E76C21D170D2E700BF00C00640BE
:104980002837FF1F2937FF1F5437FF1F2437FF1F0A
:104990009537FF1F9837FF1F9437FF1F9C37FF1F66
:1049A0002C37FF1F054A064B10781B78C0B2DBB2CC
:1049B000984238BF4030C01A704700BFA437FF1F6D
:1049C000A537FF1F30B42B4B1A7994061FD52A4800
:1049D000DA790378294901333F2B0978C8BF0023CE
:1049E0008B42D2B203D0264CD9B2E2540170254A90
:1049F000116861B1244A1278D2B2934236BFC2F133
:104A000040029B1A9B18272BC4BF01230B70194A25
:104A1000D378DBB2180611D45A060DD5154B1B7985
:104A20005B0609D5194B1A491B6800220A7003B1AD
:104A30001A70104B2C22DA7030BC704711790906BD
:104A4000EAD5144910480C780178C9B28C420DD0CF
:104A50004A1C272A84BF00210A460F4D054C98BFE7
:104A6000D1B2AA5CD2B2E2710170D5E76C21D170EB
:104A7000D2E700BF00D00640A437FF1FA537FF1FB5
:104A8000D037FF1FA037FF1F1138FF1F1438FF1F3B
:104A90001038FF1F1838FF1FA837FF1F054A064BA5
:104AA00010781B78C0B2DBB2984238BF4030C01AD1
:104AB000704700BF2038FF1F2138FF1F30B42B4B39
:104AC0001A7994061FD52A48DA79037829490133DF
:104AD0003F2B0978C8BF00238B42D2B203D0264CAB
:104AE000D9B2E2540170254A116861B1244A1278A2
:104AF000D2B2934236BFC2F140029B1A9B18272BB9
:104B0000C4BF01230B70194AD378DBB2180611D445
:104B10005A060DD5154B1B795B0609D5194B1A4959
:104B20001B6800220A7003B11A70104B2C22DA7035
:104B300030BC704711790906EAD5144910480C7841
:104B40000178C9B28C420DD04A1C272A84BF0021AB
:104B50000A460F4D054C98BFD1B2AA5CD2B2E271A1
:104B60000170D5E76C21D170D2E700BF00A00E40E4
:104B70002038FF1F2138FF1F4C38FF1F1C38FF1F34
:104B80008D38FF1F9038FF1F8C38FF1F9438FF1F90
:104B90002438FF1F054A064B10781B78C0B2DBB2E1
:104BA000984238BF4030C01A704700BF9C38FF1F82
:104BB0009D38FF1F30B42C4B5A6894021FD52B48E8
:104BC000DA6803782A4901333F2B0978C8BF0023EC
:104BD0008B4204D0274CD2B2D9B2E2540170264A9B
:104BE000116861B1254A1278D2B2934236BFC2F140
:104BF00040029B1A9B18272BC4BF01230B701A4A33
:104C00009368180202D55268110211D45A020DD5C8
:104C1000154B5B685B0209D5194B1A491B680022CA
:104C20000A7003B11A70184B00221A6030BC70472A
:104C3000164A124910780A78D2B290420DD0013249
:104C4000272A84BF00200246114D074C98BFD0B2DE
:104C5000AA5CD2B2E2600870D8E70E480A4A002483
:104C6000012104601160D1E700400C409C38FF1F17
:104C70009D38FF1FC838FF1F9838FF1F0939FF1FD5
:104C80000C39FF1F0839FF1F580188431039FF1FD7
:104C9000A038FF1F5C01884310B584B072B6FEF7E0
:104CA00039FB184A184B19491160702280211A707B
:104CB0001A46197013781B06FCD5154B1C68FEF7B5
:104CC00043FB62B6134B9C429CBF04EB840464001C
:104CD0002046114C01A90A22FEF750FB01A92046EB
:104CE000002311F8012B01333AB10A2B20F8022FCF
:104CF000F7D11623237004B010BD5B00DBB2237024
:104D000004B010BD04000240000002400000074152
:104D10000C0002407F969800E00DFF1F014B1868C1
:104D2000704700BF2012FF1F70B50F4E0F4D761B4E
:104D3000B61018BF002405D0013455F8043B98473D
:104D4000A642F9D10A4E0B4D761B00F063FEB61059
:104D500018BF002406D0013455F8043B9847A642FA
:104D6000F9D170BD70BD00BF205A0000205A00006C
:104D70002C5A0000205A0000024B0146186800F02F
:104D800003B800BF2012FF1F2DE9F04F01F10B0502
:104D9000162D83B0064640F29F8035F0070500F1DE
:104DA000BF80A94200F2BC8000F0F4FAB5F5FC7FA8
:104DB000C0F09C826B0A00F0BA80042B00F2838161
:104DC000A80900F1390E4FEA4E033830C44F07EB03
:104DD0008303A3F108015C68A14207D1ACE0002A7B
:104DE00080F2AC80E468A14200F0A680636823F002
:104DF00003035A1B0F2AF2DDB9493C6901F1080E81
:104E0000744500F0B381636823F003035A1B0F2A33
:104E100000F39981002AC1F814E0C1F810E080F293
:104E20009E80B3F5007F80F06781DB0803F1010C01
:104E300001229B1002FA03F34A6851F83C80C4F83F
:104E4000088001EBCC091A43A9F10803E3604A602A
:104E500041F83C40C8F80C40831001249C40944227
:104E600000F28A80144206D120F00300640014424C
:104E700000F10400FAD007EBC009CC468046DCF80C
:104E80000C108C4507D173E1002A80F28181C9683A
:104E90008C4500F06D814B6823F003035A1B0F2AE9
:104EA000F2DD0C46D1F80CC054F8088F4B1945F0D0
:104EB00001054D6042F00101C8F80CC03046CCF845
:104EC00008807B613B61C3F80CE0C3F808E05960DF
:104ED0009A5000F061FA1FE0102921D800F05AFA28
:104EE0001025062302207E4F07EB8303A3F108025F
:104EF0005C68944200F045816368E168A56823F02E
:104F00000303234430465A68E96042F001028D6091
:104F10005A6000F041FA0834204603B0BDE8F08F33
:104F200000240C232046336003B0BDE8F08F8023BB
:104F30004FF0400E3F2049E770465DE72344E168AB
:104F40005A68A56842F00102E96030468D605A60F7
:104F500000F022FA0834204603B0BDE8F08F234465
:104F600030465A6842F001025A6000F015FA0834DF
:104F7000204603B0BDE8F08FBC68636823F00308E7
:104F8000A84504D3C5EB08030F2B00F38C80554BC9
:104F9000DFF860911A68D9F8003001332A4404EB35
:104FA000080A00F0608102F580520F3222F47F621D
:104FB00022F00F0211463046019200F0EFF9B0F1F5
:104FC000FF3F8346019A00F05881824500F2FC8041
:104FD000454B1968DA451144196000F05381D9F83E
:104FE0000000DFF810E101301BBFCAEB0B0A51448F
:104FF000CEF800B019601BF0070100F01781C1F175
:105000000800C1F58051834408315A44C2F30B02B1
:10501000C2EB010949463046019300F0BFF9431C39
:10502000019B00F03F81CBEB00024A4442F00102B9
:105030001968C7F808B04944BC42CBF8042019608D
:10504000DFF8A49016D0B8F10F0F40F2FD8062682F
:10505000A8F10C0323F00703E01802F001024FF05F
:10506000050E1A430F2B6260C0F804E0C0F808E098
:1050700000F21C811D4BBC681A68914288BF196000
:105080001B4B1A689142626888BF196022F00302C4
:105090009542A2EB050301D80F2B04DC304600F04B
:1050A0007BF9002438E7621943F0010345F001055C
:1050B00065603046BA60536000F06EF908342046EF
:1050C00003B0BDE8F08F142B71D9542B00F2A480EB
:1050D000280B00F16F0E4FEA4E036E3076E600BFEC
:1050E0002412FF1F1C39FF1F2039FF1F1839FF1F13
:1050F0001439FF1F3016FF1F5A0A042A5ED9142ADA
:1051000000F2B38002F15C0149005B3207EB810CD5
:1051100057F82110DFF8DC81ACF1080C8C4500F069
:1051200088804A6822F00302934202D289688C4543
:10513000F7D1D1F80CC07A68C4F80CC0A160CCF8E3
:105140000840CC6088E6631942F0010745F001058C
:10515000656030464B610B61C3F80CE0C3F808E0B2
:105160005F609A50083400F017F9D5E64A6873E694
:1051700008F1010818F0030F0CF1080C7FF47FAE62
:1051800030E0DC68A34208BF02303FF435AEB3E63E
:105190000B440C465A68C96854F8085F42F0010293
:1051A0005A603046E9608D6000F0F6F8B4E603F12D
:1051B0005C0E03F15B004FEA4E0307E69A0902F129
:1051C000390149003832A1E7BC424A4B3FF400AFF5
:1051D0009C68626822F003025AE759F80839994539
:1051E00040F0828010F0030F00F1FF30F5D17B68B2
:1051F00023EA04037B6064009C423FF6BDAE002CB2
:105200003FF4BAAE1C4240467FF435AE64001C4207
:1052100000F10400FAD02EE6B3F5AA7F18D8E80B07
:1052200000F1780E4FEA4E037730CFE54FF480510E
:10523000EBE60121D8F80430921001FA02F21A4389
:10524000C8F80420614677E70123CBF8043025E74E
:1052500040F25452934220D8A80C00F17D0E4FEA40
:105260004E037C30B2E51032A4E6542A26D81A0B3D
:1052700002F16F0149006E3248E7BC68626822F0B3
:10528000030205E7CAF30B0000287FF4A8AE4244EE
:10529000BB6842F001025A60ECE6FE234FF07F0E3D
:1052A0007E2093E501224FF00009C1E604F10801D8
:1052B000304600F0F7F8D9F80010DBE6B2F5AA7F27
:1052C00005D8DA0B02F17801490077321EE740F287
:1052D00054518A4205D89A0C02F17D0149007C3272
:1052E00014E7FE217E2211E77B6884E7E808431C6F
:1052F0005B00F8E52412FF1F70B4840746D0541EEB
:10530000002A41D0CDB2034602E0621EE4B3144647
:1053100003F8015B9A07F8D1032C2ED9CDB245EAE8
:1053200005250F2C45EA054519D903F1100226463B
:10533000103E0F2E42F8105C42F80C5C42F8085CFC
:1053400042F8045C02F11002F2D8A4F1100222F03B
:105350000F0204F00F041032032C13440DD91E4623
:105360002246043A032A46F8045BFAD8221F22F0A8
:1053700003020432134404F003042CB1C9B21C44E8
:1053800003F8011BA342FBD170BC704714460346CF
:10539000C2E700BF704700BF704700BF38B5074C79
:1053A0000023054608462360FDF79EFF431C00D0FE
:1053B00038BD2368002BFBD02B6038BD4C39FF1F54
:1053C000024B13B1024800F005B87047000000001E
:1053D000E1530000002301461A46184600F04AB97E
:1053E00038B5074D074C2C1BA41005D0013C55F8CF
:1053F000043D9847002CF9D1BDE8384000F016BBB9
:105400000000000000000000F8B5234F0C460646DF
:10541000FFF7C0FFBB685D6825F00305291B01F697
:10542000EF7121F47F6121F00F01A1F58054B4F5F3
:10543000805F07DB00213046FFF7B0FFBB682B44DD
:10544000984204D03046FFF7A7FF0020F8BD614224
:105450003046FFF7A3FF01300DD0104BBA68196832
:105460002D1B45F001053046091B55601960FFF7FB
:1054700093FF0120F8BD00213046FFF78FFFBA6887
:10548000831A0F2BDEDD064C0449246843F0010328
:10549000001B53600860D5E72412FF1F2039FF1F4F
:1054A0003016FF1F002945D02DE9F0410D468046FA
:1054B000FFF770FF55F8047C6A4927F00103A5F156
:1054C0000804E2188E685068B24220F0030062D0EF
:1054D000FE0750600BD455F8087CE41B01F1080E60
:1054E000A56875453B446FD0E768EF60BD6015184F
:1054F0006D68ED0742D543F001026260E350B3F5F9
:10550000007F18D2DB085A1C4D6851F83270A76032
:1055100001209B1000FA03F301EBC2001D43083881
:10552000E0604D6041F83240FC604046BDE8F0412B
:10553000FFF732BF70475A0A042A53D89A0902F17A
:1055400039077F0002F1380501EB870051F8272069
:105550004449083890424DD0516821F003018B42F4
:1055600002D292689042F7D1D068E060A260846075
:10557000D4604046BDE8F041FFF70EBF95683A4F52
:10558000BD4203443FD0D068E86043F0010285602B
:105590006260E350B3E7FF07034407D455F8082CD3
:1055A000A41A1344A068E268C26090602F4A12688F
:1055B00043F00100934260608C60B6D32C4B4046B0
:1055C0001968FFF721FFB0E711184968C90744D4EB
:1055D0009168D268CA60034443F001009160606042
:1055E000E350A2E7142A17D802F15C077F0002F10A
:1055F0005B05A9E7AA104B68012505FA02F21343DF
:105600004B600246B1E743F001024C610C61E5607A
:10561000A5606260E35088E7542A06D81A0B02F1AD
:105620006F077F0002F16E058EE7B2F5AA7F06D8FC
:10563000DA0B02F178077F0002F1770584E740F288
:105640005450824206D89A0C02F17D077F0002F185
:105650007C0579E7FE277E2576E743F0010262604C
:10566000E35062E72412FF1F2C12FF1F2C16FF1FAE
:105670001C39FF1F2DE9F047254C2568D5F8484116
:105680000646884692469946C4B360681F2817DCD0
:10569000431C76B104EB80050122C5F888A0D4F83C
:1056A000881182401143022EC4F88811C5F8089170
:1056B0001ED00230636044F820800020BDE8F087EF
:1056C000144B03B34FF4C870FFF756FB0446D0B138
:1056D000D5F84831002780E88800C5F848413846A9
:1056E0000123C4F88871C4F88C71002EE1D0D1E791
:1056F000D4F88C110A43C4F88C21DAE705F5A674B6
:10570000C5F84841C1E74FF0FF30BDE8F08700BF62
:10571000105A0000794D0000000000000000000059
:10572000AD2900006D040000710400007504000044
:10573000A529000000000000000000000D1F00006F
:10574000B12500006921000075040000891E0000D9
:1057500048656C6C6F2C2049276D207265736574E9
:1057600074696D65720000004465626F756E6365F3
:105770002054696D65720000000000000000000008
:10578000AD2900006D0400007104000075040000E4
:10579000A52900004008FE4340A004404408FE4301
:1057A00044A004400018FE4300C004403000FE4303
:1057B000309004403400FE43349004401C18FE43F3
:1057C0001CC004401018FE4310C004400818FE43DB
:1057D00008C004400C18FE430CC004400C10FE43EB
:1057E0000CB004401010FE4310B004401810FE43EB
:1057F00018B004401C10FE431CB004401410FE43BB
:1058000014B004400418FE4304C004400010FE43DA
:1058100000B004400008FE4300A004400408FE431A
:1058200004A004400C08FE430CA004400808FE43FA
:1058300008A004401418FE4314C004401818FE4386
:1058400018C004400410FE4304B004400810FE4396
:1058500008B004406820FE4368D004401400FE43B2
:10586000149004403800FE43389004403C00FE434E
:105870003C9004404000FE43409004404808FE43F2
:1058800048A004404C08FE434CA004402808FE43B6
:1058900028A004402C08FE432CA004406020FE43B6
:1058A00060D004406420FE4364D004402010FE43D6
:1058B00020B004402410FE4324B004402810FE43CE
:1058C00028B004402C10FE432CB004404400FE439A
:1058D000449004407000FE43709004407400FE4306
:1058E000749004406800FE43689004405008FE43F2
:1058F00050A004405808FE4358A004405C08FE43F2
:105900005CA004405408FE4354A004402018FE4309
:1059100020C004402418FE4324C004401008FE4365
:1059200010A004401408FE4314A004403818FE439D
:1059300038C004403418FE4334C004403018FE43DD
:1059400030C004403C18FE433CC004402C18FE43C9
:105950002CC004402820FE4328D004402C20FE43C5
:105960002CD004400020FE4300D004400420FE431D
:1059700004D004400820FE4308D004400C20FE431D
:105980000CD004401020FE4310D004401420FE43ED
:1059900014D004401519FFFF00010000680CFF1F20
:1059A0001200000000020000DC0CFF1F29000000B4
:1059B00000220000080DFF1F8900000000210000E8
:1059C000E50CFF1F09000000010348007C0CFF1FCD
:1059D0000000000000030000DC0DFF1F00000000BD
:1059E000010309047C0CFF1F0000000002030904EE
:1059F000940DFF1F0000000003030904E00DFF1FCA
:105A00000000000000000000000000000000000096
:105A1000F80DFF1FF8B500BFF8BC08BC9E467047E4
:0C5A2000C153000035040000BD08000068
:045A2C00F8B500BF0A
:105A30005039FF1FFFFFFFFF0000088080808000BB
:105A40000000000000000000000000000200020052
:105A50000200020A0400000012010002000000100F
:105A6000BA121802000201020001000060034C009B
:105A70006900630065006E0073006500640020002B
:105A800062007900200053006F006E007900200052
:105A900043006F006D0070007500740065007200B7
:105AA000200045006E007400650072007400610003
:105AB00069006E006D0065006E00740020004100FA
:105AC0006D00650072006900630061000902290031
:105AD00001010080200904000002030000000921E8
